{
    "_format": "hh-sol-artifact-1",
    "contractName": "InvoiceDiscounting",
    "sourceName": "contracts/InvoiceDiscounting.sol",
    "abi": [
        {
            "inputs": [
                {
                    "internalType": "address",
                    "name": "_tokenAddress",
                    "type": "address"
                },
                {
                    "internalType": "uint256",
                    "name": "_fee",
                    "type": "uint256"
                }
            ],
            "stateMutability": "nonpayable",
            "type": "constructor"
        },
        {
            "anonymous": false,
            "inputs": [
                {
                    "indexed": true,
                    "internalType": "uint256",
                    "name": "invoiceId",
                    "type": "uint256"
                },
                {
                    "indexed": true,
                    "internalType": "address",
                    "name": "bidder",
                    "type": "address"
                },
                {
                    "indexed": false,
                    "internalType": "uint256",
                    "name": "bidAmount",
                    "type": "uint256"
                }
            ],
            "name": "InvoiceBidding",
            "type": "event"
        },
        {
            "anonymous": false,
            "inputs": [
                {
                    "indexed": true,
                    "internalType": "uint256",
                    "name": "invoiceId",
                    "type": "uint256"
                },
                {
                    "indexed": true,
                    "internalType": "address",
                    "name": "winner",
                    "type": "address"
                },
                {
                    "indexed": false,
                    "internalType": "uint256",
                    "name": "winningAmount",
                    "type": "uint256"
                }
            ],
            "name": "InvoiceClosed",
            "type": "event"
        },
        {
            "anonymous": false,
            "inputs": [
                {
                    "indexed": true,
                    "internalType": "uint256",
                    "name": "invoiceId",
                    "type": "uint256"
                },
                {
                    "indexed": true,
                    "internalType": "address",
                    "name": "supplier",
                    "type": "address"
                },
                {
                    "indexed": false,
                    "internalType": "uint256",
                    "name": "invoiceAmount",
                    "type": "uint256"
                },
                {
                    "indexed": false,
                    "internalType": "uint256",
                    "name": "dueDate",
                    "type": "uint256"
                }
            ],
            "name": "InvoiceCreated",
            "type": "event"
        },
        {
            "inputs": [
                {
                    "internalType": "uint256",
                    "name": "_invoiceId",
                    "type": "uint256"
                },
                {
                    "internalType": "uint256",
                    "name": "_bidAmount",
                    "type": "uint256"
                }
            ],
            "name": "bidOnInvoice",
            "outputs": [],
            "stateMutability": "nonpayable",
            "type": "function"
        },
        {
            "inputs": [
                {
                    "internalType": "uint256",
                    "name": "_invoiceId",
                    "type": "uint256"
                }
            ],
            "name": "closeInvoiceAuction",
            "outputs": [],
            "stateMutability": "nonpayable",
            "type": "function"
        },
        {
            "inputs": [
                {
                    "internalType": "address",
                    "name": "_buyer",
                    "type": "address"
                },
                {
                    "internalType": "uint256",
                    "name": "_invoiceAmount",
                    "type": "uint256"
                },
                {
                    "internalType": "uint256",
                    "name": "_dueDate",
                    "type": "uint256"
                },
                {
                    "internalType": "uint256",
                    "name": "_auctionEndTime",
                    "type": "uint256"
                }
            ],
            "name": "createInvoice",
            "outputs": [],
            "stateMutability": "nonpayable",
            "type": "function"
        },
        {
            "inputs": [],
            "name": "getInvoiceCount",
            "outputs": [
                {
                    "internalType": "uint256",
                    "name": "",
                    "type": "uint256"
                }
            ],
            "stateMutability": "view",
            "type": "function"
        },
        {
            "inputs": [
                {
                    "internalType": "uint256",
                    "name": "",
                    "type": "uint256"
                }
            ],
            "name": "invoices",
            "outputs": [
                {
                    "internalType": "address",
                    "name": "supplier",
                    "type": "address"
                },
                {
                    "internalType": "address",
                    "name": "buyer",
                    "type": "address"
                },
                {
                    "internalType": "uint256",
                    "name": "invoiceAmount",
                    "type": "uint256"
                },
                {
                    "internalType": "uint256",
                    "name": "dueDate",
                    "type": "uint256"
                },
                {
                    "internalType": "uint256",
                    "name": "auctionEndTime",
                    "type": "uint256"
                },
                {
                    "internalType": "uint256",
                    "name": "highestBid",
                    "type": "uint256"
                },
                {
                    "internalType": "address",
                    "name": "highestBidder",
                    "type": "address"
                },
                {
                    "internalType": "bool",
                    "name": "closed",
                    "type": "bool"
                }
            ],
            "stateMutability": "view",
            "type": "function"
        },
        {
            "inputs": [],
            "name": "platformFee",
            "outputs": [
                {
                    "internalType": "uint256",
                    "name": "",
                    "type": "uint256"
                }
            ],
            "stateMutability": "view",
            "type": "function"
        },
        {
            "inputs": [],
            "name": "platformOwner",
            "outputs": [
                {
                    "internalType": "address",
                    "name": "",
                    "type": "address"
                }
            ],
            "stateMutability": "view",
            "type": "function"
        },
        {
            "inputs": [],
            "name": "token",
            "outputs": [
                {
                    "internalType": "contract IERC20",
                    "name": "",
                    "type": "address"
                }
            ],
            "stateMutability": "view",
            "type": "function"
        },
        {
            "inputs": [
                {
                    "internalType": "address",
                    "name": "",
                    "type": "address"
                }
            ],
            "name": "userBalances",
            "outputs": [
                {
                    "internalType": "uint256",
                    "name": "",
                    "type": "uint256"
                }
            ],
            "stateMutability": "view",
            "type": "function"
        },
        {
            "inputs": [],
            "name": "withdraw",
            "outputs": [],
            "stateMutability": "nonpayable",
            "type": "function"
        }
    ],
    "bytecode": "0x60806040523480156200001157600080fd5b5060405162001e2d38038062001e2d83398181016040528101906200003791906200016c565b816000806101000a81548173ffffffffffffffffffffffffffffffffffffffff021916908373ffffffffffffffffffffffffffffffffffffffff16021790555033600160006101000a81548173ffffffffffffffffffffffffffffffffffffffff021916908373ffffffffffffffffffffffffffffffffffffffff160217905550806002819055505050620001b3565b600080fd5b600073ffffffffffffffffffffffffffffffffffffffff82169050919050565b6000620000f982620000cc565b9050919050565b6200010b81620000ec565b81146200011757600080fd5b50565b6000815190506200012b8162000100565b92915050565b6000819050919050565b620001468162000131565b81146200015257600080fd5b50565b60008151905062000166816200013b565b92915050565b60008060408385031215620001865762000185620000c7565b5b600062000196858286016200011a565b9250506020620001a98582860162000155565b9150509250929050565b611c6a80620001c36000396000f3fe608060405234801561001057600080fd5b506004361061009e5760003560e01c80634e6d1405116100665780634e6d1405146101355780637d6a59ed1461016c5780638eb218301461018a578063d8b54bd3146101a6578063fc0c546a146101c25761009e565b806326224c64146100a357806326232a2e146100d35780632825d8f7146100f15780633ccfd60b1461010d5780634df8ccb114610117575b600080fd5b6100bd60048036038101906100b89190611096565b6101e0565b6040516100ca91906110dc565b60405180910390f35b6100db6101f8565b6040516100e891906110dc565b60405180910390f35b61010b60048036038101906101069190611123565b6101fe565b005b610115610560565b005b61011f6106ce565b60405161012c9190611199565b60405180910390f35b61014f600480360381019061014a91906111b4565b6106f4565b6040516101639897969594939291906111fc565b60405180910390f35b6101746107b9565b60405161018191906110dc565b60405180910390f35b6101a4600480360381019061019f919061127a565b6107c6565b005b6101c060048036038101906101bb91906111b4565b610b1a565b005b6101ca61100f565b6040516101d79190611319565b60405180910390f35b60046020528060005260406000206000915090505481565b60025481565b3373ffffffffffffffffffffffffffffffffffffffff168473ffffffffffffffffffffffffffffffffffffffff160361026c576040517f08c379a0000000000000000000000000000000000000000000000000000000008152600401610263906113b7565b60405180910390fd5b600083116102af576040517f08c379a00000000000000000000000000000000000000000000000000000000081526004016102a690611449565b60405180910390fd5b4282116102f1576040517f08c379a00000000000000000000000000000000000000000000000000000000081526004016102e8906114b5565b60405180910390fd5b428111610333576040517f08c379a000000000000000000000000000000000000000000000000000000000815260040161032a90611547565b60405180910390fd5b6000600380549050905060036040518061010001604052803373ffffffffffffffffffffffffffffffffffffffff1681526020018773ffffffffffffffffffffffffffffffffffffffff16815260200186815260200185815260200184815260200160008152602001600073ffffffffffffffffffffffffffffffffffffffff16815260200160001515815250908060018154018082558091505060019003906000526020600020906007020160009091909190915060008201518160000160006101000a81548173ffffffffffffffffffffffffffffffffffffffff021916908373ffffffffffffffffffffffffffffffffffffffff16021790555060208201518160010160006101000a81548173ffffffffffffffffffffffffffffffffffffffff021916908373ffffffffffffffffffffffffffffffffffffffff16021790555060408201518160020155606082015181600301556080820151816004015560a0820151816005015560c08201518160060160006101000a81548173ffffffffffffffffffffffffffffffffffffffff021916908373ffffffffffffffffffffffffffffffffffffffff16021790555060e08201518160060160146101000a81548160ff02191690831515021790555050503373ffffffffffffffffffffffffffffffffffffffff16817fcf3cabbef1a922985e239e7d4b3806775d07a76cecd7ef9311a73e709bb7536a8686604051610551929190611567565b60405180910390a35050505050565b6000600460003373ffffffffffffffffffffffffffffffffffffffff1673ffffffffffffffffffffffffffffffffffffffff168152602001908152602001600020549050600081116105e7576040517f08c379a00000000000000000000000000000000000000000000000000000000081526004016105de906115dc565b60405180910390fd5b6000600460003373ffffffffffffffffffffffffffffffffffffffff1673ffffffffffffffffffffffffffffffffffffffff1681526020019081526020016000208190555060008054906101000a900473ffffffffffffffffffffffffffffffffffffffff1673ffffffffffffffffffffffffffffffffffffffff1663a9059cbb33836040518363ffffffff1660e01b81526004016106879291906115fc565b6020604051808303816000875af11580156106a6573d6000803e3d6000fd5b505050506040513d601f19601f820116820180604052508101906106ca9190611651565b5050565b600160009054906101000a900473ffffffffffffffffffffffffffffffffffffffff1681565b6003818154811061070457600080fd5b90600052602060002090600702016000915090508060000160009054906101000a900473ffffffffffffffffffffffffffffffffffffffff16908060010160009054906101000a900473ffffffffffffffffffffffffffffffffffffffff16908060020154908060030154908060040154908060050154908060060160009054906101000a900473ffffffffffffffffffffffffffffffffffffffff16908060060160149054906101000a900460ff16905088565b6000600380549050905090565b600380549050821061080d576040517f08c379a0000000000000000000000000000000000000000000000000000000008152600401610804906116ca565b60405180910390fd5b600060038381548110610823576108226116ea565b5b906000526020600020906007020190508060060160149054906101000a900460ff1615610885576040517f08c379a000000000000000000000000000000000000000000000000000000000815260040161087c90611765565b60405180910390fd5b8060000160009054906101000a900473ffffffffffffffffffffffffffffffffffffffff1673ffffffffffffffffffffffffffffffffffffffff163373ffffffffffffffffffffffffffffffffffffffff1603610917576040517f08c379a000000000000000000000000000000000000000000000000000000000815260040161090e906117f7565b60405180910390fd5b8060050154821161095d576040517f08c379a000000000000000000000000000000000000000000000000000000000815260040161095490611889565b60405180910390fd5b806004015442106109a3576040517f08c379a000000000000000000000000000000000000000000000000000000000815260040161099a906118f5565b60405180910390fd5b600073ffffffffffffffffffffffffffffffffffffffff168160060160009054906101000a900473ffffffffffffffffffffffffffffffffffffffff1673ffffffffffffffffffffffffffffffffffffffff1614610a7a578060050154600460008360060160009054906101000a900473ffffffffffffffffffffffffffffffffffffffff1673ffffffffffffffffffffffffffffffffffffffff1673ffffffffffffffffffffffffffffffffffffffff1681526020019081526020016000206000828254610a729190611944565b925050819055505b818160050181905550338160060160006101000a81548173ffffffffffffffffffffffffffffffffffffffff021916908373ffffffffffffffffffffffffffffffffffffffff1602179055503373ffffffffffffffffffffffffffffffffffffffff16837fc052b5c2fc70be25c17beca41dd59e682591da634bc85bb2c818bc602765615484604051610b0d91906110dc565b60405180910390a3505050565b6003805490508110610b61576040517f08c379a0000000000000000000000000000000000000000000000000000000008152600401610b58906116ca565b60405180910390fd5b600060038281548110610b7757610b766116ea565b5b906000526020600020906007020190508060060160149054906101000a900460ff1615610bd9576040517f08c379a0000000000000000000000000000000000000000000000000000000008152600401610bd0906119ea565b60405180910390fd5b8060040154421015610c20576040517f08c379a0000000000000000000000000000000000000000000000000000000008152600401610c1790611a56565b60405180910390fd5b8060000160009054906101000a900473ffffffffffffffffffffffffffffffffffffffff1673ffffffffffffffffffffffffffffffffffffffff163373ffffffffffffffffffffffffffffffffffffffff161480610ccb5750600160009054906101000a900473ffffffffffffffffffffffffffffffffffffffff1673ffffffffffffffffffffffffffffffffffffffff163373ffffffffffffffffffffffffffffffffffffffff16145b610d0a576040517f08c379a0000000000000000000000000000000000000000000000000000000008152600401610d0190611ae8565b60405180910390fd5b60018160060160146101000a81548160ff021916908315150217905550600073ffffffffffffffffffffffffffffffffffffffff168160060160009054906101000a900473ffffffffffffffffffffffffffffffffffffffff1673ffffffffffffffffffffffffffffffffffffffff1614610ef257600060646002548360050154610d959190611b08565b610d9f9190611b79565b90506000818360050154610db39190611baa565b905060008054906101000a900473ffffffffffffffffffffffffffffffffffffffff1673ffffffffffffffffffffffffffffffffffffffff1663a9059cbb8460000160009054906101000a900473ffffffffffffffffffffffffffffffffffffffff16836040518363ffffffff1660e01b8152600401610e349291906115fc565b6020604051808303816000875af1158015610e53573d6000803e3d6000fd5b505050506040513d601f19601f82011682018060405250810190610e779190611651565b508260060160009054906101000a900473ffffffffffffffffffffffffffffffffffffffff1673ffffffffffffffffffffffffffffffffffffffff16847f71513b63b347c4dae2aeb13c1cfd9bbbff68cadad763bdae5ee38329cd9302af83604051610ee391906110dc565b60405180910390a3505061100b565b60008054906101000a900473ffffffffffffffffffffffffffffffffffffffff1673ffffffffffffffffffffffffffffffffffffffff1663a9059cbb8260000160009054906101000a900473ffffffffffffffffffffffffffffffffffffffff1683600201546040518363ffffffff1660e01b8152600401610f759291906115fc565b6020604051808303816000875af1158015610f94573d6000803e3d6000fd5b505050506040513d601f19601f82011682018060405250810190610fb89190611651565b50600073ffffffffffffffffffffffffffffffffffffffff16827f71513b63b347c4dae2aeb13c1cfd9bbbff68cadad763bdae5ee38329cd9302af60006040516110029190611c19565b60405180910390a35b5050565b60008054906101000a900473ffffffffffffffffffffffffffffffffffffffff1681565b600080fd5b600073ffffffffffffffffffffffffffffffffffffffff82169050919050565b600061106382611038565b9050919050565b61107381611058565b811461107e57600080fd5b50565b6000813590506110908161106a565b92915050565b6000602082840312156110ac576110ab611033565b5b60006110ba84828501611081565b91505092915050565b6000819050919050565b6110d6816110c3565b82525050565b60006020820190506110f160008301846110cd565b92915050565b611100816110c3565b811461110b57600080fd5b50565b60008135905061111d816110f7565b92915050565b6000806000806080858703121561113d5761113c611033565b5b600061114b87828801611081565b945050602061115c8782880161110e565b935050604061116d8782880161110e565b925050606061117e8782880161110e565b91505092959194509250565b61119381611058565b82525050565b60006020820190506111ae600083018461118a565b92915050565b6000602082840312156111ca576111c9611033565b5b60006111d88482850161110e565b91505092915050565b60008115159050919050565b6111f6816111e1565b82525050565b600061010082019050611212600083018b61118a565b61121f602083018a61118a565b61122c60408301896110cd565b61123960608301886110cd565b61124660808301876110cd565b61125360a08301866110cd565b61126060c083018561118a565b61126d60e08301846111ed565b9998505050505050505050565b6000806040838503121561129157611290611033565b5b600061129f8582860161110e565b92505060206112b08582860161110e565b9150509250929050565b6000819050919050565b60006112df6112da6112d584611038565b6112ba565b611038565b9050919050565b60006112f1826112c4565b9050919050565b6000611303826112e6565b9050919050565b611313816112f8565b82525050565b600060208201905061132e600083018461130a565b92915050565b600082825260208201905092915050565b7f537570706c69657220616e642062757965722063616e6e6f742062652074686560008201527f2073616d65000000000000000000000000000000000000000000000000000000602082015250565b60006113a1602583611334565b91506113ac82611345565b604082019050919050565b600060208201905081810360008301526113d081611394565b9050919050565b7f496e766f69636520616d6f756e74206d7573742062652067726561746572207460008201527f68616e2030000000000000000000000000000000000000000000000000000000602082015250565b6000611433602583611334565b915061143e826113d7565b604082019050919050565b6000602082019050818103600083015261146281611426565b9050919050565b7f4475652064617465206d75737420626520696e20746865206675747572650000600082015250565b600061149f601e83611334565b91506114aa82611469565b602082019050919050565b600060208201905081810360008301526114ce81611492565b9050919050565b7f41756374696f6e20656e642074696d65206d75737420626520696e207468652060008201527f6675747572650000000000000000000000000000000000000000000000000000602082015250565b6000611531602683611334565b915061153c826114d5565b604082019050919050565b6000602082019050818103600083015261156081611524565b9050919050565b600060408201905061157c60008301856110cd565b61158960208301846110cd565b9392505050565b7f596f752068617665206e6f2062616c616e636520746f20776974686472617700600082015250565b60006115c6601f83611334565b91506115d182611590565b602082019050919050565b600060208201905081810360008301526115f5816115b9565b9050919050565b6000604082019050611611600083018561118a565b61161e60208301846110cd565b9392505050565b61162e816111e1565b811461163957600080fd5b50565b60008151905061164b81611625565b92915050565b60006020828403121561166757611666611033565b5b60006116758482850161163c565b91505092915050565b7f496e76616c696420696e766f6963652049440000000000000000000000000000600082015250565b60006116b4601283611334565b91506116bf8261167e565b602082019050919050565b600060208201905081810360008301526116e3816116a7565b9050919050565b7f4e487b7100000000000000000000000000000000000000000000000000000000600052603260045260246000fd5b7f496e766f6963652061756374696f6e20697320636c6f73656400000000000000600082015250565b600061174f601983611334565b915061175a82611719565b602082019050919050565b6000602082019050818103600083015261177e81611742565b9050919050565b7f537570706c696572732063616e6e6f7420626964206f6e20746865697220696e60008201527f766f696365730000000000000000000000000000000000000000000000000000602082015250565b60006117e1602683611334565b91506117ec82611785565b604082019050919050565b60006020820190508181036000830152611810816117d4565b9050919050565b7f42696420616d6f756e74206d75737420626520686967686572207468616e207460008201527f68652063757272656e7420686967686573742062696400000000000000000000602082015250565b6000611873603683611334565b915061187e82611817565b604082019050919050565b600060208201905081810360008301526118a281611866565b9050919050565b7f41756374696f6e2068617320656e646564000000000000000000000000000000600082015250565b60006118df601183611334565b91506118ea826118a9565b602082019050919050565b6000602082019050818103600083015261190e816118d2565b9050919050565b7f4e487b7100000000000000000000000000000000000000000000000000000000600052601160045260246000fd5b600061194f826110c3565b915061195a836110c3565b925082820190508082111561197257611971611915565b5b92915050565b7f496e766f6963652061756374696f6e20697320616c726561647920636c6f736560008201527f6400000000000000000000000000000000000000000000000000000000000000602082015250565b60006119d4602183611334565b91506119df82611978565b604082019050919050565b60006020820190508181036000830152611a03816119c7565b9050919050565b7f41756374696f6e20686173206e6f7420656e6465642079657400000000000000600082015250565b6000611a40601983611334565b9150611a4b82611a0a565b602082019050919050565b60006020820190508181036000830152611a6f81611a33565b9050919050565b7f4f6e6c7920737570706c696572206f7220706c6174666f726d206f776e65722060008201527f63616e20636c6f7365207468652061756374696f6e0000000000000000000000602082015250565b6000611ad2603583611334565b9150611add82611a76565b604082019050919050565b60006020820190508181036000830152611b0181611ac5565b9050919050565b6000611b13826110c3565b9150611b1e836110c3565b9250828202611b2c816110c3565b91508282048414831517611b4357611b42611915565b5b5092915050565b7f4e487b7100000000000000000000000000000000000000000000000000000000600052601260045260246000fd5b6000611b84826110c3565b9150611b8f836110c3565b925082611b9f57611b9e611b4a565b5b828204905092915050565b6000611bb5826110c3565b9150611bc0836110c3565b9250828203905081811115611bd857611bd7611915565b5b92915050565b6000819050919050565b6000611c03611bfe611bf984611bde565b6112ba565b6110c3565b9050919050565b611c1381611be8565b82525050565b6000602082019050611c2e6000830184611c0a565b9291505056fea2646970667358221220c21c25a24dca01a322bac406da59ee10500502aa2e2bbb5059da414b7385d7b764736f6c63430008140033",
    "linkReferences": {},
    "deployedLinkReferences": {}
}