{
  "_format": "hh-sol-artifact-1",
  "contractName": "InvoiceDiscounting",
  "sourceName": "contracts/InvoiceDiscounting.sol",
  "abi": [
    {
      "inputs": [
        {
          "internalType": "address",
          "name": "_tokenAddress",
          "type": "address"
        },
        {
          "internalType": "uint256",
          "name": "_fee",
          "type": "uint256"
        }
      ],
      "stateMutability": "nonpayable",
      "type": "constructor"
    },
    {
      "anonymous": false,
      "inputs": [
        {
          "indexed": true,
          "internalType": "uint256",
          "name": "invoiceId",
          "type": "uint256"
        },
        {
          "indexed": true,
          "internalType": "address",
          "name": "bidder",
          "type": "address"
        },
        {
          "indexed": false,
          "internalType": "uint256",
          "name": "bidAmount",
          "type": "uint256"
        }
      ],
      "name": "InvoiceBidding",
      "type": "event"
    },
    {
      "anonymous": false,
      "inputs": [
        {
          "indexed": true,
          "internalType": "uint256",
          "name": "invoiceId",
          "type": "uint256"
        },
        {
          "indexed": true,
          "internalType": "address",
          "name": "winner",
          "type": "address"
        },
        {
          "indexed": false,
          "internalType": "uint256",
          "name": "winningAmount",
          "type": "uint256"
        }
      ],
      "name": "InvoiceClosed",
      "type": "event"
    },
    {
      "anonymous": false,
      "inputs": [
        {
          "indexed": true,
          "internalType": "uint256",
          "name": "invoiceId",
          "type": "uint256"
        },
        {
          "indexed": true,
          "internalType": "address",
          "name": "supplier",
          "type": "address"
        },
        {
          "indexed": false,
          "internalType": "uint256",
          "name": "invoiceAmount",
          "type": "uint256"
        },
        {
          "indexed": false,
          "internalType": "uint256",
          "name": "dueDate",
          "type": "uint256"
        }
      ],
      "name": "InvoiceCreated",
      "type": "event"
    },
    {
      "inputs": [
        {
          "internalType": "uint256",
          "name": "invoiceId",
          "type": "uint256"
        },
        {
          "internalType": "uint256",
          "name": "bidAmount",
          "type": "uint256"
        }
      ],
      "name": "bidOnInvoice",
      "outputs": [],
      "stateMutability": "nonpayable",
      "type": "function"
    },
    {
      "inputs": [
        {
          "internalType": "uint256",
          "name": "invoiceId",
          "type": "uint256"
        }
      ],
      "name": "closeInvoiceAuction",
      "outputs": [],
      "stateMutability": "nonpayable",
      "type": "function"
    },
    {
      "inputs": [
        {
          "internalType": "address",
          "name": "buyer",
          "type": "address"
        },
        {
          "internalType": "uint256",
          "name": "invoiceAmount",
          "type": "uint256"
        },
        {
          "internalType": "uint256",
          "name": "dueDate",
          "type": "uint256"
        },
        {
          "internalType": "uint256",
          "name": "auctionEndTime",
          "type": "uint256"
        }
      ],
      "name": "createInvoice",
      "outputs": [],
      "stateMutability": "nonpayable",
      "type": "function"
    },
    {
      "inputs": [],
      "name": "getInvoiceCount",
      "outputs": [
        {
          "internalType": "uint256",
          "name": "",
          "type": "uint256"
        }
      ],
      "stateMutability": "view",
      "type": "function"
    },
    {
      "inputs": [
        {
          "internalType": "uint256",
          "name": "index",
          "type": "uint256"
        }
      ],
      "name": "getInvoiceDetails",
      "outputs": [
        {
          "internalType": "address",
          "name": "supplier",
          "type": "address"
        },
        {
          "internalType": "address",
          "name": "buyer",
          "type": "address"
        },
        {
          "internalType": "uint256",
          "name": "invoiceAmount",
          "type": "uint256"
        },
        {
          "internalType": "uint256",
          "name": "dueDate",
          "type": "uint256"
        },
        {
          "internalType": "uint256",
          "name": "auctionEndTime",
          "type": "uint256"
        },
        {
          "internalType": "uint256",
          "name": "highestBid",
          "type": "uint256"
        },
        {
          "internalType": "address",
          "name": "highestBidder",
          "type": "address"
        },
        {
          "internalType": "bool",
          "name": "closed",
          "type": "bool"
        }
      ],
      "stateMutability": "view",
      "type": "function"
    },
    {
      "inputs": [
        {
          "internalType": "uint256",
          "name": "",
          "type": "uint256"
        }
      ],
      "name": "invoices",
      "outputs": [
        {
          "internalType": "address",
          "name": "supplier",
          "type": "address"
        },
        {
          "internalType": "address",
          "name": "buyer",
          "type": "address"
        },
        {
          "internalType": "uint256",
          "name": "invoiceAmount",
          "type": "uint256"
        },
        {
          "internalType": "uint256",
          "name": "dueDate",
          "type": "uint256"
        },
        {
          "internalType": "uint256",
          "name": "auctionEndTime",
          "type": "uint256"
        },
        {
          "internalType": "uint256",
          "name": "highestBid",
          "type": "uint256"
        },
        {
          "internalType": "address",
          "name": "highestBidder",
          "type": "address"
        },
        {
          "internalType": "bool",
          "name": "closed",
          "type": "bool"
        }
      ],
      "stateMutability": "view",
      "type": "function"
    },
    {
      "inputs": [],
      "name": "platformFee",
      "outputs": [
        {
          "internalType": "uint256",
          "name": "",
          "type": "uint256"
        }
      ],
      "stateMutability": "view",
      "type": "function"
    },
    {
      "inputs": [],
      "name": "platformOwner",
      "outputs": [
        {
          "internalType": "address",
          "name": "",
          "type": "address"
        }
      ],
      "stateMutability": "view",
      "type": "function"
    },
    {
      "inputs": [],
      "name": "token",
      "outputs": [
        {
          "internalType": "contract IERC20",
          "name": "",
          "type": "address"
        }
      ],
      "stateMutability": "view",
      "type": "function"
    },
    {
      "inputs": [
        {
          "internalType": "address",
          "name": "",
          "type": "address"
        }
      ],
      "name": "userBalances",
      "outputs": [
        {
          "internalType": "uint256",
          "name": "",
          "type": "uint256"
        }
      ],
      "stateMutability": "view",
      "type": "function"
    },
    {
      "inputs": [],
      "name": "withdraw",
      "outputs": [],
      "stateMutability": "nonpayable",
      "type": "function"
    }
  ],
  "bytecode": "0x60806040523480156200001157600080fd5b50604051620020053803806200200583398181016040528101906200003791906200016c565b816000806101000a81548173ffffffffffffffffffffffffffffffffffffffff021916908373ffffffffffffffffffffffffffffffffffffffff16021790555033600160006101000a81548173ffffffffffffffffffffffffffffffffffffffff021916908373ffffffffffffffffffffffffffffffffffffffff160217905550806002819055505050620001b3565b600080fd5b600073ffffffffffffffffffffffffffffffffffffffff82169050919050565b6000620000f982620000cc565b9050919050565b6200010b81620000ec565b81146200011757600080fd5b50565b6000815190506200012b8162000100565b92915050565b6000819050919050565b620001468162000131565b81146200015257600080fd5b50565b60008151905062000166816200013b565b92915050565b60008060408385031215620001865762000185620000c7565b5b600062000196858286016200011a565b9250506020620001a98582860162000155565b9150509250929050565b611e4280620001c36000396000f3fe608060405234801561001057600080fd5b50600436106100a95760003560e01c80634e6d1405116100715780634e6d1405146101405780637d6a59ed146101775780638eb2183014610195578063909a708a146101b1578063d8b54bd3146101e8578063fc0c546a14610204576100a9565b806326224c64146100ae57806326232a2e146100de5780632825d8f7146100fc5780633ccfd60b146101185780634df8ccb114610122575b600080fd5b6100c860048036038101906100c39190611202565b610222565b6040516100d59190611248565b60405180910390f35b6100e661023a565b6040516100f39190611248565b60405180910390f35b6101166004803603810190610111919061128f565b610240565b005b6101206105a2565b005b61012a610710565b6040516101379190611305565b60405180910390f35b61015a60048036038101906101559190611320565b610736565b60405161016e989796959493929190611368565b60405180910390f35b61017f6107fb565b60405161018c9190611248565b60405180910390f35b6101af60048036038101906101aa91906113e6565b610808565b005b6101cb60048036038101906101c69190611320565b610b5c565b6040516101df989796959493929190611368565b60405180910390f35b61020260048036038101906101fd9190611320565b610c86565b005b61020c61117b565b6040516102199190611485565b60405180910390f35b60046020528060005260406000206000915090505481565b60025481565b3373ffffffffffffffffffffffffffffffffffffffff168473ffffffffffffffffffffffffffffffffffffffff16036102ae576040517f08c379a00000000000000000000000000000000000000000000000000000000081526004016102a590611523565b60405180910390fd5b600083116102f1576040517f08c379a00000000000000000000000000000000000000000000000000000000081526004016102e8906115b5565b60405180910390fd5b428211610333576040517f08c379a000000000000000000000000000000000000000000000000000000000815260040161032a90611621565b60405180910390fd5b428111610375576040517f08c379a000000000000000000000000000000000000000000000000000000000815260040161036c906116b3565b60405180910390fd5b6000600380549050905060036040518061010001604052803373ffffffffffffffffffffffffffffffffffffffff1681526020018773ffffffffffffffffffffffffffffffffffffffff16815260200186815260200185815260200184815260200160008152602001600073ffffffffffffffffffffffffffffffffffffffff16815260200160001515815250908060018154018082558091505060019003906000526020600020906007020160009091909190915060008201518160000160006101000a81548173ffffffffffffffffffffffffffffffffffffffff021916908373ffffffffffffffffffffffffffffffffffffffff16021790555060208201518160010160006101000a81548173ffffffffffffffffffffffffffffffffffffffff021916908373ffffffffffffffffffffffffffffffffffffffff16021790555060408201518160020155606082015181600301556080820151816004015560a0820151816005015560c08201518160060160006101000a81548173ffffffffffffffffffffffffffffffffffffffff021916908373ffffffffffffffffffffffffffffffffffffffff16021790555060e08201518160060160146101000a81548160ff02191690831515021790555050503373ffffffffffffffffffffffffffffffffffffffff16817fcf3cabbef1a922985e239e7d4b3806775d07a76cecd7ef9311a73e709bb7536a86866040516105939291906116d3565b60405180910390a35050505050565b6000600460003373ffffffffffffffffffffffffffffffffffffffff1673ffffffffffffffffffffffffffffffffffffffff16815260200190815260200160002054905060008111610629576040517f08c379a000000000000000000000000000000000000000000000000000000000815260040161062090611748565b60405180910390fd5b6000600460003373ffffffffffffffffffffffffffffffffffffffff1673ffffffffffffffffffffffffffffffffffffffff1681526020019081526020016000208190555060008054906101000a900473ffffffffffffffffffffffffffffffffffffffff1673ffffffffffffffffffffffffffffffffffffffff1663a9059cbb33836040518363ffffffff1660e01b81526004016106c9929190611768565b6020604051808303816000875af11580156106e8573d6000803e3d6000fd5b505050506040513d601f19601f8201168201806040525081019061070c91906117bd565b5050565b600160009054906101000a900473ffffffffffffffffffffffffffffffffffffffff1681565b6003818154811061074657600080fd5b90600052602060002090600702016000915090508060000160009054906101000a900473ffffffffffffffffffffffffffffffffffffffff16908060010160009054906101000a900473ffffffffffffffffffffffffffffffffffffffff16908060020154908060030154908060040154908060050154908060060160009054906101000a900473ffffffffffffffffffffffffffffffffffffffff16908060060160149054906101000a900460ff16905088565b6000600380549050905090565b600380549050821061084f576040517f08c379a000000000000000000000000000000000000000000000000000000000815260040161084690611836565b60405180910390fd5b60006003838154811061086557610864611856565b5b906000526020600020906007020190508060060160149054906101000a900460ff16156108c7576040517f08c379a00000000000000000000000000000000000000000000000000000000081526004016108be906118d1565b60405180910390fd5b8060000160009054906101000a900473ffffffffffffffffffffffffffffffffffffffff1673ffffffffffffffffffffffffffffffffffffffff163373ffffffffffffffffffffffffffffffffffffffff1603610959576040517f08c379a000000000000000000000000000000000000000000000000000000000815260040161095090611963565b60405180910390fd5b8060050154821161099f576040517f08c379a0000000000000000000000000000000000000000000000000000000008152600401610996906119f5565b60405180910390fd5b806004015442106109e5576040517f08c379a00000000000000000000000000000000000000000000000000000000081526004016109dc90611a61565b60405180910390fd5b600073ffffffffffffffffffffffffffffffffffffffff168160060160009054906101000a900473ffffffffffffffffffffffffffffffffffffffff1673ffffffffffffffffffffffffffffffffffffffff1614610abc578060050154600460008360060160009054906101000a900473ffffffffffffffffffffffffffffffffffffffff1673ffffffffffffffffffffffffffffffffffffffff1673ffffffffffffffffffffffffffffffffffffffff1681526020019081526020016000206000828254610ab49190611ab0565b925050819055505b818160050181905550338160060160006101000a81548173ffffffffffffffffffffffffffffffffffffffff021916908373ffffffffffffffffffffffffffffffffffffffff1602179055503373ffffffffffffffffffffffffffffffffffffffff16837fc052b5c2fc70be25c17beca41dd59e682591da634bc85bb2c818bc602765615484604051610b4f9190611248565b60405180910390a3505050565b6000806000806000806000806003805490508910610baf576040517f08c379a0000000000000000000000000000000000000000000000000000000008152600401610ba690611b30565b60405180910390fd5b600060038a81548110610bc557610bc4611856565b5b906000526020600020906007020190508060000160009054906101000a900473ffffffffffffffffffffffffffffffffffffffff168160010160009054906101000a900473ffffffffffffffffffffffffffffffffffffffff1682600201548360030154846004015485600501548660060160009054906101000a900473ffffffffffffffffffffffffffffffffffffffff168760060160149054906101000a900460ff169850985098509850985098509850985050919395975091939597565b6003805490508110610ccd576040517f08c379a0000000000000000000000000000000000000000000000000000000008152600401610cc490611836565b60405180910390fd5b600060038281548110610ce357610ce2611856565b5b906000526020600020906007020190508060060160149054906101000a900460ff1615610d45576040517f08c379a0000000000000000000000000000000000000000000000000000000008152600401610d3c90611bc2565b60405180910390fd5b8060040154421015610d8c576040517f08c379a0000000000000000000000000000000000000000000000000000000008152600401610d8390611c2e565b60405180910390fd5b8060000160009054906101000a900473ffffffffffffffffffffffffffffffffffffffff1673ffffffffffffffffffffffffffffffffffffffff163373ffffffffffffffffffffffffffffffffffffffff161480610e375750600160009054906101000a900473ffffffffffffffffffffffffffffffffffffffff1673ffffffffffffffffffffffffffffffffffffffff163373ffffffffffffffffffffffffffffffffffffffff16145b610e76576040517f08c379a0000000000000000000000000000000000000000000000000000000008152600401610e6d90611cc0565b60405180910390fd5b60018160060160146101000a81548160ff021916908315150217905550600073ffffffffffffffffffffffffffffffffffffffff168160060160009054906101000a900473ffffffffffffffffffffffffffffffffffffffff1673ffffffffffffffffffffffffffffffffffffffff161461105e57600060646002548360050154610f019190611ce0565b610f0b9190611d51565b90506000818360050154610f1f9190611d82565b905060008054906101000a900473ffffffffffffffffffffffffffffffffffffffff1673ffffffffffffffffffffffffffffffffffffffff1663a9059cbb8460000160009054906101000a900473ffffffffffffffffffffffffffffffffffffffff16836040518363ffffffff1660e01b8152600401610fa0929190611768565b6020604051808303816000875af1158015610fbf573d6000803e3d6000fd5b505050506040513d601f19601f82011682018060405250810190610fe391906117bd565b508260060160009054906101000a900473ffffffffffffffffffffffffffffffffffffffff1673ffffffffffffffffffffffffffffffffffffffff16847f71513b63b347c4dae2aeb13c1cfd9bbbff68cadad763bdae5ee38329cd9302af8360405161104f9190611248565b60405180910390a35050611177565b60008054906101000a900473ffffffffffffffffffffffffffffffffffffffff1673ffffffffffffffffffffffffffffffffffffffff1663a9059cbb8260000160009054906101000a900473ffffffffffffffffffffffffffffffffffffffff1683600201546040518363ffffffff1660e01b81526004016110e1929190611768565b6020604051808303816000875af1158015611100573d6000803e3d6000fd5b505050506040513d601f19601f8201168201806040525081019061112491906117bd565b50600073ffffffffffffffffffffffffffffffffffffffff16827f71513b63b347c4dae2aeb13c1cfd9bbbff68cadad763bdae5ee38329cd9302af600060405161116e9190611df1565b60405180910390a35b5050565b60008054906101000a900473ffffffffffffffffffffffffffffffffffffffff1681565b600080fd5b600073ffffffffffffffffffffffffffffffffffffffff82169050919050565b60006111cf826111a4565b9050919050565b6111df816111c4565b81146111ea57600080fd5b50565b6000813590506111fc816111d6565b92915050565b6000602082840312156112185761121761119f565b5b6000611226848285016111ed565b91505092915050565b6000819050919050565b6112428161122f565b82525050565b600060208201905061125d6000830184611239565b92915050565b61126c8161122f565b811461127757600080fd5b50565b60008135905061128981611263565b92915050565b600080600080608085870312156112a9576112a861119f565b5b60006112b7878288016111ed565b94505060206112c88782880161127a565b93505060406112d98782880161127a565b92505060606112ea8782880161127a565b91505092959194509250565b6112ff816111c4565b82525050565b600060208201905061131a60008301846112f6565b92915050565b6000602082840312156113365761133561119f565b5b60006113448482850161127a565b91505092915050565b60008115159050919050565b6113628161134d565b82525050565b60006101008201905061137e600083018b6112f6565b61138b602083018a6112f6565b6113986040830189611239565b6113a56060830188611239565b6113b26080830187611239565b6113bf60a0830186611239565b6113cc60c08301856112f6565b6113d960e0830184611359565b9998505050505050505050565b600080604083850312156113fd576113fc61119f565b5b600061140b8582860161127a565b925050602061141c8582860161127a565b9150509250929050565b6000819050919050565b600061144b611446611441846111a4565b611426565b6111a4565b9050919050565b600061145d82611430565b9050919050565b600061146f82611452565b9050919050565b61147f81611464565b82525050565b600060208201905061149a6000830184611476565b92915050565b600082825260208201905092915050565b7f537570706c69657220616e642062757965722063616e6e6f742062652074686560008201527f2073616d65000000000000000000000000000000000000000000000000000000602082015250565b600061150d6025836114a0565b9150611518826114b1565b604082019050919050565b6000602082019050818103600083015261153c81611500565b9050919050565b7f496e766f69636520616d6f756e74206d7573742062652067726561746572207460008201527f68616e2030000000000000000000000000000000000000000000000000000000602082015250565b600061159f6025836114a0565b91506115aa82611543565b604082019050919050565b600060208201905081810360008301526115ce81611592565b9050919050565b7f4475652064617465206d75737420626520696e20746865206675747572650000600082015250565b600061160b601e836114a0565b9150611616826115d5565b602082019050919050565b6000602082019050818103600083015261163a816115fe565b9050919050565b7f41756374696f6e20656e642074696d65206d75737420626520696e207468652060008201527f6675747572650000000000000000000000000000000000000000000000000000602082015250565b600061169d6026836114a0565b91506116a882611641565b604082019050919050565b600060208201905081810360008301526116cc81611690565b9050919050565b60006040820190506116e86000830185611239565b6116f56020830184611239565b9392505050565b7f596f752068617665206e6f2062616c616e636520746f20776974686472617700600082015250565b6000611732601f836114a0565b915061173d826116fc565b602082019050919050565b6000602082019050818103600083015261176181611725565b9050919050565b600060408201905061177d60008301856112f6565b61178a6020830184611239565b9392505050565b61179a8161134d565b81146117a557600080fd5b50565b6000815190506117b781611791565b92915050565b6000602082840312156117d3576117d261119f565b5b60006117e1848285016117a8565b91505092915050565b7f496e76616c696420696e766f6963652049440000000000000000000000000000600082015250565b60006118206012836114a0565b915061182b826117ea565b602082019050919050565b6000602082019050818103600083015261184f81611813565b9050919050565b7f4e487b7100000000000000000000000000000000000000000000000000000000600052603260045260246000fd5b7f496e766f6963652061756374696f6e20697320636c6f73656400000000000000600082015250565b60006118bb6019836114a0565b91506118c682611885565b602082019050919050565b600060208201905081810360008301526118ea816118ae565b9050919050565b7f537570706c696572732063616e6e6f7420626964206f6e20746865697220696e60008201527f766f696365730000000000000000000000000000000000000000000000000000602082015250565b600061194d6026836114a0565b9150611958826118f1565b604082019050919050565b6000602082019050818103600083015261197c81611940565b9050919050565b7f42696420616d6f756e74206d75737420626520686967686572207468616e207460008201527f68652063757272656e7420686967686573742062696400000000000000000000602082015250565b60006119df6036836114a0565b91506119ea82611983565b604082019050919050565b60006020820190508181036000830152611a0e816119d2565b9050919050565b7f41756374696f6e2068617320656e646564000000000000000000000000000000600082015250565b6000611a4b6011836114a0565b9150611a5682611a15565b602082019050919050565b60006020820190508181036000830152611a7a81611a3e565b9050919050565b7f4e487b7100000000000000000000000000000000000000000000000000000000600052601160045260246000fd5b6000611abb8261122f565b9150611ac68361122f565b9250828201905080821115611ade57611add611a81565b5b92915050565b7f496e76616c696420696e766f69636520696e6465780000000000000000000000600082015250565b6000611b1a6015836114a0565b9150611b2582611ae4565b602082019050919050565b60006020820190508181036000830152611b4981611b0d565b9050919050565b7f496e766f6963652061756374696f6e20697320616c726561647920636c6f736560008201527f6400000000000000000000000000000000000000000000000000000000000000602082015250565b6000611bac6021836114a0565b9150611bb782611b50565b604082019050919050565b60006020820190508181036000830152611bdb81611b9f565b9050919050565b7f41756374696f6e20686173206e6f7420656e6465642079657400000000000000600082015250565b6000611c186019836114a0565b9150611c2382611be2565b602082019050919050565b60006020820190508181036000830152611c4781611c0b565b9050919050565b7f4f6e6c7920737570706c696572206f7220706c6174666f726d206f776e65722060008201527f63616e20636c6f7365207468652061756374696f6e0000000000000000000000602082015250565b6000611caa6035836114a0565b9150611cb582611c4e565b604082019050919050565b60006020820190508181036000830152611cd981611c9d565b9050919050565b6000611ceb8261122f565b9150611cf68361122f565b9250828202611d048161122f565b91508282048414831517611d1b57611d1a611a81565b5b5092915050565b7f4e487b7100000000000000000000000000000000000000000000000000000000600052601260045260246000fd5b6000611d5c8261122f565b9150611d678361122f565b925082611d7757611d76611d22565b5b828204905092915050565b6000611d8d8261122f565b9150611d988361122f565b9250828203905081811115611db057611daf611a81565b5b92915050565b6000819050919050565b6000611ddb611dd6611dd184611db6565b611426565b61122f565b9050919050565b611deb81611dc0565b82525050565b6000602082019050611e066000830184611de2565b9291505056fea2646970667358221220869cc9791bc2742ed5df66971f4c4d55cc7cf6aba491ae0d66bae924900b586464736f6c63430008140033",
  "linkReferences": {},
  "deployedLinkReferences": {}
}